:100000000C9477000C94B9000C94470E0C94B90032
:100010000C94B9000C94180E0C94214E0C94B90059
:100020000C94B9000C94B9000C94B9000C94B9006C
:100030000C94B9000C94B9000C94FE110C94574028
:100040000C94B9000C94B9000C94B8480C941A495B
:100050000C94B9000C94B9000C94B9000C94B9003C
:100060000C94B9000C94B9000C94B9000C94B9002C
:100070000C94B9000C94B9000C9494490C94054A62
:100080000C94B9000C94B9000C94B9001B4F1E4F8E
:10009000214F294F2C4F2F4F324F354F384F674F3D
:1000A0008C4F914F964F9B4FA04FB54FB94FF44F88
:1000B000FF4F0D50184F184F184F184F51505450B4
:1000C0005B506E5071507B50184F7E508650895057
:1000D000915094509C509F50A750BE4FD34FDF4F2C
:1000E000F44F184F184F184F184F11503F5080ECD5
:1000F00085BF11241FBECFEFD0E1DEBFCDBF1BE017
:10010000A0E0B1E0EAE5F7EC00E00BBF02C0079029
:100110000D92AC3AB107D9F71CE0ACEABBE001C0E4
:100120001D92A53BB107E1F78FEF9FE79EBF8DBF03
:100130008FEF9FE7855B9C408158914050F04FEFD7
:100140005EE7455B5C408EE89CE065EB7CE00E94EE
:100150004A380E947B3E84E999E063E376E140E01F
:1001600050E020E831E00E94E33E0E9400000C9441
:10017000AB630C940000CF92DF92EF92FF920F934B
:100180001F93DF93CF9300D00F92CDB7DEB78E9839
:10019000969A8C98949A849B02C0869909C080E0B4
:1001A0000E94631080E00E94C60D80E00E94C70D8F
:1001B000198281E08A838FE18B83CE0101960E94B0
:1001C00012130E947E140E944D1480E040E052EC15
:1001D00061E070E000E010E020E030E00E94FA0210
:1001E000892B59F000D080E091E0EDB7FEB7928303
:1001F00081830E9494590F900F9081E040E051EE6E
:1002000060E070E000E213E020E030E00E94FA02DB
:10021000892B59F000D08EE191E0EDB7FEB79283C3
:1002200081830E9494590F900F900E94FD106F5F80
:100230007F4F8F4F904071F480E00E94C60D80E0A8
:100240000E94C70D62E770E080E090E00E94EA1033
:100250000E94230D0E94FD107B018C0180E060E074
:1002600070E040E050E020E030E00E94F3140E9493
:10027000F80D0E94C80D0E94790E0E94750D0E9413
:10028000890D4091540B5091550B8CE391E062E441
:1002900071E00E948B584091520B5091530B8CE3AC
:1002A00091E066E471E00E948B5800D08AE491E00E
:1002B000EDB7FEB7928381830E94945984E791E061
:1002C000EDB7FEB7928381830E9494598EE991E045
:1002D000EDB7FEB7928381830E94945988EC91E038
:1002E000EDB7FEB7928381830E9494590F900F90CF
:1002F0000E946C0D85EE9AE060E073E845E00E9494
:10030000503E892B59F000D082EF91E0EDB7FEB757
:10031000928381830E9494590F900F902091780CC2
:100320003091790C40917A0C50917B0CE0907C0CD0
:10033000F0907D0C00917E0C10917F0C8FE092E08C
:1003400062E77CE00E9412218091780C9091790CF8
:10035000A0917A0CB0917B0C0097A105B105D9F062
:10036000E090800CF090810C0091820C1091830C35
:10037000E114F1040105110571F060E070E080E026
:1003800090E020E030E040E050E0E5EECE2EEAE004
:10039000DE2E0E94FD1D0E945E0284E192E061E17A
:1003A00075E040E050E020E032E00E94E33E8BE167
:1003B00092E064E873E140E050E020E031E00E9428
:1003C000E33E83E292E060E773E040E050E020E04B
:1003D00032E00E94E33E0E94360F8EE292E06CE82B
:1003E00071E140E050E020E031E00E94E33E8E9871
:1003F000969A869B1EC086E392E067E071E140E03A
:1004000050E020E031E00E94E33E8FE392E069E6B5
:1004100070E140E050E020E830E00E94E33E80E5FB
:1004200092E061EA70E140E050E020E830E00E94B4
:10043000E33E80E692E00E94AD5980E593EC20E730
:1004400031E0F9013197F1F70197D9F780E593ECA5
:1004500020E731E0F9013197F1F70197D9F780E50D
:1004600093EC20E731E0F9013197F1F70197D9F7E3
:1004700080E593EC20E731E0F9013197F1F701973E
:10048000D9F70E94FD107B018C0181E060E070E0F3
:1004900040E050E020E030E00E94F3140E94910719
:1004A00080E090E00F900F900F90CF91DF911F911F
:1004B0000F91FF90EF90DF90CF90089500D000D083
:1004C0008FE692E0ADB7BEB712969C938E931197CC
:1004D00089E69CE014969C938E9313970E949459FE
:1004E000EDB7FEB73A970FB6F894FEBF0FBEEDBF5B
:1004F000319686E892E0ADB7BEB712969C938E9384
:1005000011978091720C828313828091730C848383
:1005100015828091740C868317828091750C808778
:1005200011868091760C828713868091770C848760
:1005300015860E949459EDB7FEB73E960FB6F89413
:10054000FEBF0FBEEDBF6091780C7091790C809169
:100550007A0C90917B0C0E94B51E00D000D026EB47
:1005600032E0ADB7BEB712963C932E931197149616
:100570009C938E9313970E9494590F900F900F9015
:100580000F9060917C0C70917D0C80917E0C90910D
:100590007F0C0E94B51E00D000D02BEC32E0EDB7EE
:1005A000FEB732832183948383830E9494590F90F2
:1005B0000F900F900F906091800C7091810C809142
:1005C000820C9091830C0E94B51E00D000D020EECA
:1005D00032E0ADB7BEB712963C932E9311971496A6
:1005E0009C938E9313970E9494590F900F900F90A5
:1005F0000F900895FF920F931F93DF93CF93CDB782
:10060000DEB728970FB6F894DEBF0FBECDBFF82E29
:1006100049835A836B837C830D831E832F833887A2
:10062000882319F48DED99E002C081E69AE060E03C
:1006300070E040E00E94503E892B09F042C0FF204C
:1006400069F085EF92E06BEF72E00E942D58909375
:10065000AF0B8093AE0B0097A1F118C08FEF92E023
:100660006BEF72E00E942D589093AD0B8093AC0B12
:100670000E94F55761E071E0AE014F5F5F4F0E944D
:1006800039578091AC0B9091AD0B0DC00E94F5577E
:1006900061E071E0AE014F5F5F4F0E94395780917A
:1006A000AE0B9091AF0B0E94F5576BE071E0AE017D
:1006B0004B5F5F4F0E943957892B19F420E030E0DF
:1006C00002C02FEF3FEFC90128960FB6F894DEBFA6
:1006D0000FBECDBFCF91DF911F910F91FF90089575
:1006E000DF93CF93CDB7DEB728970FB6F894DEBF70
:1006F0000FBECDBF8FE097E20E94A21C3C0180E8B4
:1007000090E00E94775A2C015C014B9698878F836A
:10071000BDE18B2E912C840C951CADE22A2E312C40
:10072000240C351CC301BE016D5F7F4FAE014F5FCE
:100730005F4F950100E810E0F8ECCF2ED12CE12CB2
:10074000F12C0E94F11BFC01009761F3EA0DFB1DE7
:100750001082C50165E073E04CE150E00E943A630D
:10076000009709F0BCC000D0E2E2F3E0ADB7BEB73D
:100770001296FC93EE9311970E9494590F900F904C
:10078000C5016CE373E046E250E00E943A637C01ED
:10079000C50163E673E043E350E00E943A63DD2461
:1007A000009711F4DD24D394C50167E973E00E943A
:1007B000336302E71CE0D201F801819157968C93D4
:1007C000579711968CE0E837F807B9F78091780CC5
:1007D0009091790CA0917A0CB0917B0CF4018083FC
:1007E0009183A283B38380917C0C90917D0CA09126
:1007F0007E0CB0917F0C84839583A683B783809110
:10080000800C9091810CA091820CB091830C808718
:100810009187A287B3870E94FD106B837C838D83B1
:100820009E83DD2031F4D4011D961C921E921C97EC
:1008300003C0F40175876487EBE0F5E0D4011F96EF
:10084000FC93EE931E97EF2861F029813A81C30152
:100850004FEF5FEF6FEF7FEF8501EDE2EE2EF12CB2
:100860002FC0F101D8018D918D018193BCE0083733
:100870001B07C1F70E948137F401668B778B808F4D
:10088000918F8FE699E2A0E0B0E0828F938FA48FE2
:10089000B58F8EE49FE8A2E3B1E0868F978FA0A387
:1008A000B1A3DD2081F08D8182A329813A81C3012A
:1008B0004FEF5FEF6FEF7FEF8501B0E4EB2EF12C90
:1008C0000E945C1C2FCF29813A81C3014FEF5FEF5B
:1008D0006FEF7FEF8501AFE3EA2EF12CF1CFC50179
:1008E0006FEA73E04BE150E00E943A63009709F031
:1008F0007CC00F811885F2E7EF2EFCE0FF2EF70198
:1009000020E030E0D8019C918081981709F00ACF4F
:100910002F5F3F4F0F5F1F4F31962630310591F704
:1009200000D08BEC93E0EDB7FEB7928381830E94F9
:100930009459F80180819181A281B3818093840CC4
:100940009093850CA093860CB093870C8093780CC1
:100950009093790CA0937A0CB0937B0C8481958151
:10096000A681B78180937C0C90937D0CA0937E0C24
:10097000B0937F0C80859185A285B3858093800C90
:100980009093810CA093820CB093830C8485958501
:100990009C0140E050E02B833C834D835E83B80193
:1009A000605F7F4F0F900F908089D7018D937D01FD
:1009B0003196B8E7EB16BCE0FB06B1F7FB016289A4
:1009C00070E080E090E0CB0177276627620F731F0D
:1009D000841F951F6B837C838D839E830E94EA1006
:1009E0000E9428210E945E029DCEC50164EE73E044
:1009F0004DE150E00E943A63009709F093CED20196
:100A0000E2E7FCE05B969C915B978081981731F45C
:100A1000119631968CE0E837F807A1F70E940E0E88
:100A200081CEDF93CF9300D000D0CDB7DEB788EE74
:100A300093E0A0E0B0E089839A83AB83BC831092FB
:100A4000B10BAA24A39426E0B22E95E7892E94E058
:100A5000992E89E6682E84E0782E0FE5402E04E07A
:100A6000502E15E3212E14E0312E0E94341B90935A
:100A70005D0C80935C0C6CED75E00E942B1BE0918B
:100A80005C0CF0915D0C628D738D848D958D0E9450
:100A9000B51E00D000D000D0EDB7FEB7319622E0F1
:100AA00034E0ADB7BEB712963C932E931197938363
:100AB00082838CED95E0958384830E9494598DB751
:100AC0009EB706960FB6F8949EBF0FBE8DBF80915D
:100AD000B50B882319F4A092B10B02C01092B10B90
:100AE00080915C0C90915D0C66E070E1AE014F5F0F
:100AF0005F4F24E030E00E949F1A84E190E00E9462
:100B0000775A6C01CBC180915C0C90915D0CB60161
:100B100044E150E00E947D177C0118161906DCF0B4
:100B200080915C0C90915D0C0E940817009799F0E1
:100B300000D000D0ADB7BEB712963C922E9211975E
:100B400014969C938E9313970E9494590F900F9034
:100B50000F900F90A8C18091B10B882309F49EC11A
:100B6000B6E0EB16F10409F095C1F6018081813100
:100B700011F58181823109F08DC18281833109F0C3
:100B800089C18381843109F085C18481853109F06F
:100B900081C18581813109F07DC100D0ADB7BEB77B
:100BA00012965C924E9211970E949459F601B0826F
:100BB0000F900F9011C1803179F5D60111968C916B
:100BC0001197893009F066C112968C91129788307E
:100BD00009F060C113968C911397873009F05AC1C0
:100BE00014961C911497163009F054C115968C91E7
:100BF000803109F04FC100D0EDB7FEB7728261823B
:100C00000E9494590F900F900E94E80D85E50E9474
:100C10003C13D6011C93E0C08931A1F5F601818116
:100C2000883109F037C18281873109F033C183816E
:100C3000863109F02FC18481853109F02BC185816E
:100C4000893109F027C100D0ADB7BEB712969C928A
:100C50008E9211970E9494590F900F900E94850DCB
:100C60000E94060E0E948E0E682F82E070E040E027
:100C700050E020E030E0EE24FF2487010E94F314CE
:100C8000F60186C0853009F06CC0D60111968C91B2
:100C90001197863009F0FEC012968C91129787301A
:100CA00009F0F8C013968C911397883009F0F2C0C0
:100CB00014968C911497893009F0ECC015968C919C
:100CC000853009F0E7C000D029E834E0EDB7FEB781
:100CD000328321830E9494590F900F908091B30B1F
:100CE000882331F00E94FD107B018C0181E009C056
:100CF0008091B80B882371F00E94FD107B018C015C
:100D000088E060E070E040E050E020E030E00E94E9
:100D1000F31419C08091B70B882331F00E94FD10A5
:100D20007B018C0185E0EDCF0E94FD107B018C01E1
:100D300080E060E070E040E050E020E030E00E94C1
:100D4000F3140E94020ED601BC9280915C0C90912B
:100D50005D0CB60141E050E00E94AA180E94810D8E
:100D60009DC08132B9F4F6018181823209F092C0CE
:100D70008281833209F08EC08381843209F08AC077
:100D80008481853209F086C08581813209F082C074
:100D9000B08222C0803351F5D60111968C91119703
:100DA000893209F077C012968C911297883209F037
:100DB00071C013968C911397873209F06BC014960B
:100DC0008C911497863209F065C015968C91159711
:100DD000803309F05FC0BC9280915C0C90915D0CF7
:100DE000B60141E050E00E94AA1858C0803409F0D2
:100DF00051C0F6018181893309F04CC0828188336A
:100E000009F048C08381873309F044C08481863368
:100E100009F040C085818034E9F500D0E2EAF4E0D1
:100E2000ADB7BEB71296FC93EE9311970E949459FA
:100E300000E010E00F900F9080915C0C90915D0CA1
:100E4000B60144E150E00E94AA180F5F1F4F093D10
:100E5000110591F780915C0C90915D0CB60143E017
:100E600050E00E94AA1800D000D0E6EBF4E0ADB745
:100E7000BEB71296FC93EE93119724EF30E11496CF
:100E80003C932E9313970E9494590F900F900F90BC
:100E90000F9004C0C601B7010E946E138091B10B80
:100EA000882309F030CE1092B10BC6010E94715A0E
:100EB00080915C0C90915D0C0E94901A87ED94E0FB
:100EC0000E94AD598091B50B882329F58091B30B11
:100ED000882331F00E94FD107B018C0181E013C05A
:100EE0008091B80B882331F00E94FD107B018C01AA
:100EF00088E009C08091B70B882369F00E94FD103B
:100F00007B018C0185E060E070E040E050E020E093
:100F100030E00E94F3148091B40B882309F4A5CD2E
:100F2000FFCF2F923F924F925F926F927F928F925C
:100F30009F92AF92BF92CF92DF92EF92FF920F9368
:100F40001F93DF93CF93CDB7DEB72F970FB6F894EB
:100F5000DEBF0FBECDBF1092B00B6EE9462E66E02D
:100F6000562E5AE2252E55E0352E0E94341B3C01A8
:100F7000009709F457C067E170E00E942B1B892B92
:100F800009F050C0C30169EF74E00E948C574C0116
:100F9000009709F443C088E893E1A0E0B0E08C87B3
:100FA0009D87AE87BF87C30166E070E1AE01445FF5
:100FB0005F4F24E030E00E949F1A81E08093B00BE5
:100FC00080E094E00E94775A5C01D3015A966D91BB
:100FD0007D918D919C915D970E94B51E00D000D0AF
:100FE00000D0EDB7FEB7319622E034E0ADB7BEB722
:100FF00012963C932E9311979383828387E190E01E
:10100000958384830E9494596DB77EB76A5F7F4F42
:101010000FB6F8947EBF0FBE6DBF00C580E090E0B4
:101020000E944E57C3010E94901A9FCFC50161E0F4
:1010300070E040E054E094010E94FD588C016C0186
:10104000181619060CF0EFC4F501E80FF91F10820D
:101050008091B00B882309F4E1C4C5016DEF74E001
:101060000E942A63009719F40E94800E38C4C501BB
:1010700067E175E00E942A63009709F03EC00E9474
:101080008E0E082F10E01B870A870E94E50D90E066
:101090008F778017910764F100D000D000D0EDB7B2
:1010A000FEB73196ADB7BEB71296BC92AE9211970D
:1010B000338222828A859B85958384830E94D159BD
:1010C0000F900F902FE235E0EDB7FEB7328321830A
:1010D000B482A3820E949459D5010D900020E9F7B3
:1010E0001197AA19BB090F900F900F900F9036C05F
:1010F0008BE495E00E94AD595CC4C5016DE775E0D5
:101100000E942A63009779F50E94E50D90E08F77A1
:101110009B878A87009709F44CC400D000D000D088
:10112000EDB7FEB73196ADB7BEB71296BC92AE9290
:10113000119733822282958384830E94D159D501ED
:101140000D900020E9F71197AA19BB09EDB7FEB77A
:1011500036960FB6F894FEBF0FBEEDBFC50161E035
:1011600070E0AD0155C4C50167E975E041E150E0AB
:101170000E943A63009709F056C000D000D000D01A
:10118000EDB7FEB73196ADB7BEB71296BC92AE9230
:1011900011972DEA35E033832283CE010A96958399
:1011A00084830E94E2596DB77EB76A5F7F4F0FB6A6
:1011B000F8947EBF0FBE6DBF8A850E94F80F88230A
:1011C00021F100D000D0E2ECF5E0ADB7BEB7129649
:1011D000FC93EE9311978A859B8514969C938E932E
:1011E00013970E9494590F900F900F900F908AE0E0
:1011F00095E061E070E044E050E094010E946D5998
:101200008A859B850E94A51306C400D0EEEDF5E00B
:10121000ADB7BEB71296FC93EE9311970E94945906
:101220000F900F90C6C3C5016BEF75E00E942A6353
:10123000009719F40E94310F52C3C5016EE076E0A9
:101240000E942A63009719F40E94970DE8C2C50115
:1012500069E176E00E942A63009769F481E0809357
:10126000B20B8091B50B882309F060C01092B10BCE
:101270000E94E80D4DC0C5016EE276E00E942A632F
:10128000009709F05FC081E08093B20B8091B50BAD
:10129000882309F04BC01092B10B0E94E80D85E540
:1012A0000E943C1380E80E943C1300E010E002C062
:1012B0000F5F1F4F0E943813882321F000511742FF
:1012C00031F42DC027E20031120791F728C00E94A7
:1012D00044138A871B8688E00E943C1300E010E0DC
:1012E00002C00F5F1F4F0E943813882321F0005166
:1012F000174231F414C067E20031160791F70FC0AE
:101300000E94441390E09B878A878836910539F4C0
:101310008AE095E061E070E044E050E00DC08FE0CD
:1013200095E061E070E047E050E006C087E296E0BB
:1013300061E070E046E050E094010E946D59109227
:10134000B20B69C3C5016BE376E00E942A63009784
:1013500009F05EC00E94A11280E69AEEFC0131976E
:10136000F1F7FC013197F1F7FC013197F1F7FC013E
:101370003197F1F7FC013197F1F7FC013197F1F763
:101380000197F1F7CE010196BE016E5F7F4FAE016E
:101390004D5F5F4F0E94AA128981882319F42BE2C6
:1013A00030E002C02DE230E04A818B81882319F4BD
:1013B00085E090E002C080E090E0ADB7BEB71A973C
:1013C0000FB6F894BEBF0FBEADBFEDB7FEB73196F6
:1013D0001296BC92AE9211976DE476E073836283AD
:1013E0003583248346831782918780870E94D15951
:1013F000D5010D900020E9F71197AA19BB098DB707
:101400009EB70A960FB6F8949EBF0FBE8DBFA6CEAC
:10141000C50167E576E00E942A63009771F4809128
:10142000B50B882339F080E796E061E070E045E095
:1014300050E0EEC286E796E0F4C1C5016BE776E0C6
:101440000E942A63009719F581E08093B30B809185
:10145000B70B882351F40E94060E0E94090E80E00B
:101460000E94C60D80E00E94C70D8091B50B8823B5
:1014700009F0D5C10E948E0ED82E0E94FD107B016E
:101480008C0181E060E070E04D2D50E025C1C50188
:1014900067E876E04FE050E00E943A63009709F079
:1014A00045C0ADB7BEB71A970FB6F894BEBF0FBE12
:1014B000ADBFEDB7FEB731962FE030E0A20EB31E00
:1014C0001296BC92AE92119721EF3FEFA20EB31E7F
:1014D00053824282CE01089695838483CE0104967E
:1014E00097838683CE010696918780870E94E25972
:1014F0006DB77EB7665F7F4F0FB6F8947EBF0FBEA5
:101500006DBF688579854C815D812E813F8183E047
:10151000EE24FF2487010E94F31486E060E00E941D
:101520003E1481E261E00E94A61379C1C50167EA19
:1015300076E046E050E00E943A630097D1F58DB71F
:101540009EB70A970FB6F8949EBF0FBE8DBFEDB73A
:10155000FEB73196A6E0B0E0AA0EBB1EADB7BEB78F
:101560001296BC92AE9211972AEF3FEFA20EB31ED5
:1015700053824282CE01089695838483CE010496DD
:1015800097838683CE010696918780870E94E259D1
:101590006DB77EB7665F7F4F0FB6F8947EBF0FBE04
:1015A0006DBF688579854C815D812E813F8183E0A7
:1015B000E4C0C50165EB76E00E942A63009761F5FF
:1015C0000E94FD10ADB7BEB718970FB6F894BEBF16
:1015D0000FBEADBFEDB7FEB731961296BC92AE927C
:1015E000119726EC36E033832283648375838683E8
:1015F00097830E94D159D5010D900020E9F71197EA
:10160000AA19BB096DB77EB7685F7F4F0FB6F89414
:101610007EBF0FBE6DBFA2CDC5016CEC76E00E940F
:101620002A63009739F48091B50B882349F510920D
:10163000B10BF5C0C5016DED76E00E942A630097FD
:1016400071F480E00E94C60D80E00E94C70DC501C4
:101650000E9443F884EE96E00E94AD59DCC1C501BA
:1016600069EF76E00E942A63009789F48091B50BB8
:10167000882331F41092B10B81E08093B40BCFC07A
:1016800087E296E061E070E046E050E0C1C1C5014C
:101690006BE077E00E942A630097D9F58091B50B43
:1016A000882309F4BCC01092B50B8091B30B88233A
:1016B00031F00E94FD107B018C0181E009C0809116
:1016C000B80B882361F00E94FD107B018C0188E03B
:1016D00060E070E040E050E020E030E051C08091F8
:1016E000B70B882331F00E94FD107B018C0185E04F
:1016F000EFCF0E94FD107B018C0180E060E070E084
:1017000040E050E020E030E00E94F3140E94020E1E
:1017100086C0C5016BE177E00E942A63009761F4FF
:101720008AE095E061E070E044E050E094010E94BE
:101730006D590E940E0E6FC1C5016AE277E00E94EA
:101740002A63009701F500D0E1E3F7E0ADB7BEB73B
:101750001296FC93EE9311970E9494590F900F905C
:101760000E94850D0E94060E0E948E0E682F82E058
:1017700070E040E050E020E030E0EE24FF248701FC
:101780000E94F3144CC0C50164E577E00E942A630F
:10179000009709F04BC000D0E0E6F7E0ADB7BEB768
:1017A0001296FC93EE9311970E9494590F900F900C
:1017B0008091B30B882331F00E94FD107B018C01D6
:1017C00081E009C08091B80B882371F00E94FD1060
:1017D0007B018C0188E060E070E040E050E020E0B8
:1017E00030E00E94F31419C08091B70B882331F0C8
:1017F0000E94FD107B018C0185E0EDCF0E94FD1061
:101800007B018C0180E060E070E040E050E020E08F
:1018100030E00E94F3140E94020E0E94810D8AE0C3
:1018200095E061E070E044E050E0F2C0C50168E896
:1018300077E04DE050E00E943A63009721F500D038
:1018400000D000D0EDB7FEB73196ADB7BEB7129657
:10185000BC92AE9211972AE937E033832283CE01FE
:101860000A96958384830E94E2596DB77EB76A5FBA
:101870007F4F0FB6F8947EBF0FBE6DBF8A859B85E4
:101880000E94D90D2CC0C5016BEA77E04DE050E015
:101890000E943A63009739F500D000D000D0EDB730
:1018A000FEB73196ADB7BEB71296BC92AE92119705
:1018B0002DEB37E033832283CE010A969583848310
:1018C0000E94E2596DB77EB76A5F7F4F0FB6F894FA
:1018D0007EBF0FBE6DBF8A859B850E94CD0D88237C
:1018E00009F467C09CCFC5016EEC77E04BE050E097
:1018F0000E943A63009709F063C0C3016AE075E093
:1019000044E050E00E94AA1845EFE42E4FEFF42E79
:10191000E00EF11E8E01045F1F4FC30166E070E10F
:10192000A80124E030E00E949C1688E893E1A0E042
:10193000B0E08C879D87AE87BF87C30166E070E10A
:10194000A80124E030E00E949F1A00EE11E012C0CE
:10195000C7010B96A8014E195F098A0D9B1D61E016
:1019600070E094010E94FD586C01181619063CF4B1
:10197000E80EF91E70EEE71671E0F70649F71C86CF
:101980001D861E861F86C30166E070E1AE01445FBE
:101990005F4F24E030E00E949F1AD7FC44C080EEE5
:1019A000E81681E0F80629F4C5010B960E9455104F
:1019B00036CF8FE095E061E070E047E050E028C06E
:1019C000C5016AED77E04AE050E00E943A63009773
:1019D000C9F4C5010E945C1000E010E030EEE32E77
:1019E00031E0F32EB501600F711FA701401B510BB1
:1019F000C3010E94AA18080F191F91E0003E1907A1
:101A000089F709C085EE97E061E070E04FE050E0B3
:101A100094010E946D59C4010E94E3578091B00B5C
:101A2000882309F003CB1092B00BC5010E94715AB4
:101A3000C4010E944E57C3010E94901A85EF97E09F
:101A40000E94AD5992CAA2E7BCE0E1E7F8E086E067
:101A500001900D928150E1F7A9E6BCE0E6E1F8E0E3
:101A600089E001900D928150E1F78BE198E00E94AE
:101A7000631E6093780C7093790C80937A0C90932A
:101A80007B0C8BE198E00E94631E6093840C709342
:101A9000850C8093860C9093870C8AE298E00E94D4
:101AA000631E60937C0C70937D0C80937E0C9093EE
:101AB0007F0C88E398E00E94631E6093800C709313
:101AC000810C8093820C9093830C80E498E00E94B8
:101AD000AD590E942821089586E198E00E943C219A
:101AE000892B11F00E94230D089514981C9A8AB72F
:101AF00082608ABF8AB78E7F8ABF89B7806189BFBB
:101B0000089589B7806189BF089589B78F7E89BF9D
:101B100008958C98949A8998919A8AB788608ABF18
:101B20008AB78B7F8ABF89B7826089BF089589B7DA
:101B30008D7F89BF899A919880E090E020E63AEE07
:101B4000F9013197F1F7019641E083339407C1F72A
:101B5000919A80E090E020E63AEEF9013197F1F7B2
:101B600001968D339105C9F7919880E090E020E6C9
:101B70003AEEF9013197F1F701968F319105C9F7E6
:101B8000919A899889B7826089BF089508950895C8
:101B9000BE9ABF9AC698C7980895009719F4C69838
:101BA00081E00895019711F080E00895C69A81E0E0
:101BB0000895009719F4C79881E00895019711F0EE
:101BC00080E00895C79A81E008958091AD08089556
:101BD000959A86E69EE00197F1F7959820E040E51A
:101BE00053ECCA010197F1F72F5F2A34D1F708951A
:101BF0008FE18DBD82E08CBD84E08EBD87B78460AF
:101C000087BF089581E08093B60B08951092B60BBC
:101C1000089587B78B7F87BF1EBC089528E088E1B1
:101C200090E00FB6F894A89581BD0FBE21BDFFCFFF
:101C30001F920F920FB60F920BB60F9211248F9333
:101C40009F93EF93FF93E091BF0BF091C00B309700
:101C500039F48FEF9FEF9093C00B8093BF0B09C0B7
:101C60008FEFEF3FF80729F08481958101969583E6
:101C7000848388B7806188BFFF91EF919F918F9196
:101C80000F900BBE0F900FBE0F901F9018951F92D4
:101C90000F920FB60F920BB60F9211248F939F9352
:101CA000EF93FF93E091C10BF091C20B309739F4A1
:101CB0008FEF9FEF9093C20B8093C10B09C08FEF02
:101CC000EF3FF80729F084819581019695838483FD
:101CD00088B7826088BF89B78D7F89BFFF91EF91F8
:101CE0009F918F910F900BBE0F900FBE0F901F9082
:101CF00018950E942C138898909A95988D9A08951B
:101D00002091AE0B3091AF0B87E798E061E070E077
:101D100047E050E00E946D5981E008950F931F93B2
:101D2000DF93CF93CDB7DEB72C970FB6F894DEBF15
:101D30000FBECDBF8091AD08813009F487C0DE01B0
:101D40001396E4E8F8E086E001900D928150E1F707
:101D500019861A861B861C860E94F13A9B01AC01EB
:101D60008091BB0B9091BC0BA091BD0BB091BE0BB1
:101D7000281B390B4A0B5B0B2093600C3093610CD2
:101D80004093620C5093630C2C3B82E0380780E058
:101D9000480780E0580750F46CEB72E080E090E078
:101DA000621B730B840B950B0E94F03B8E010D5F41
:101DB0001F4FF80101900020E9F73197E01BF10B6C
:101DC0002091AE0B3091AF0BC80161E070E0AF0124
:101DD0000E946D5980E69AEEFC013197F1F7019768
:101DE000F1F72091AE0B3091AF0BC80161E070E0CC
:101DF0004AE050E00E94FD58FC01009731F1E00FED
:101E0000F11F108200D000D000D0EDB7FEB73196A0
:101E1000ADB7BEB712961C930E9311978FE798E05B
:101E200093838283CE010196958384830E94E25935
:101E30002DB73EB72A5F3F4F0FB6F8943EBF0FBE97
:101E40002DBF892B11F0898101C08FEF2C960FB621
:101E5000F894DEBF0FBECDBFCF91DF911F910F91E0
:101E600008950E948E0E811181E00895EF92FF92F5
:101E70000F931F93DF93CF93CDB7DEB767970FB65E
:101E8000F894DEBF0FBECDBFDE011396EEE8F8E09A
:101E900086E001900D928150E1F7DE011996E4E9A8
:101EA000F8E088E001900D928150E1F7FE01719613
:101EB00087E0DF011D928A95E9F768EE73E080E024
:101EC00090E00E94F03B2091AE0B3091AF0B87E782
:101ED00098E061E070E047E050E00E946D5964ECEA
:101EE00079E080E090E00E94F03BDE011396FD0176
:101EF00001900020E9F73197EA1BFB0B2091AE0B14
:101F00003091AF0BCD0161E070E0AF010E946D59DF
:101F100000E61AEEC8010197F1F7C8010197F1F741
:101F200089E0E82EF12CEC0EFD1EF7010190002057
:101F3000E9F73197EE19FF092091AE0B3091AF0B05
:101F4000C70161E070E0AF010E946D59C8010197BF
:101F5000F1F7C8010197F1F72091AE0B3091AF0B6B
:101F6000C70161E070E04FE050E00E94FD588C0135
:101F7000009789F1E80EF91EF701108200D000D019
:101F800000D0EDB7FEB73196CE010F96ADB7BEB714
:101F900012969C938E9311978FE798E09383828398
:101FA000CE010196958384830E94E2592981209372
:101FB000AD080C0F1D1FEDB7FEB736960FB6F8949F
:101FC000FEBF0FBEEDBFD80116968C91823619F474
:101FD00020682093AD0867960FB6F894DEBF0FBE59
:101FE000CDBFCF91DF911F910F91FF90EF9008959A
:101FF0000F931F93DF93CF93CDB7DEB72A970FB61A
:10200000F894DEBF0FBECDBF282F30E08091AD0821
:1020100090E08F778217930714F480E03BC000D0E4
:1020200000D000D0EDB7FEB731968E010F5F1F4F85
:10203000ADB7BEB712961C930E93119783EA98E042
:1020400093838283358324830E94D159F8010190C0
:102050000020E9F73197E01BF10B8DB79EB706968C
:102060000FB6F8949EBF0FBE8DBF2091AE0B30917E
:10207000AF0BC80161E070E0AF010E946D590E9492
:10208000F13A6093BB0B7093BC0B8093BD0B9093A4
:10209000BE0B81E02A960FB6F894DEBF0FBECDBF0F
:1020A000CF91DF911F910F91089569E071E040EEAB
:1020B00051E00E947C63089569E071E040EE51E0D8
:1020C0000E945E630895682F85E091E00E94866318
:1020D000089568EB7BE080E090E00E94F03BDD2417
:1020E000D39484991DC0D092B90B1092B60B87B7C8
:1020F0008B7F87BF1EBC89B78F7E89BF87E060E07A
:1021000070E040E050E020E030E0EE24FF24870162
:102110000E94F31485E091E060E00E9486630EC0A7
:102120008091B90B882351F028E088E190E00FB648
:10213000F894A89581BD0FBE21BDFFCF0E94E43960
:10214000D0CF68EB7BE080E090E00E94F03B81EC38
:102150009BE044E650E060E070E00E94233E892B63
:10216000B1F58091B90B882351F028E088E190E027
:102170000FB6F894A89581BD0FBE21BDFFCF85E0B5
:1021800091E00E946E638130E9F085E091E061E0CA
:102190000E9486631092B60B87B78B7F87BF1EBCE9
:1021A00089B78F7E89BF86E060E070E040E050E054
:1021B00020E030E0EE24FF2487010E94F31402C0E7
:1021C0000E94E439819BFCCF89B7826089BF0E945D
:1021D000E439BDCFEF92FF920F931F93E82E86E074
:1021E00091E00E94936388E091E06E2D0E948663E7
:1021F0001F910F91FF90EF90089586E091E00E946B
:1022000076639B01AC015070B901CA010895DF9358
:10221000CF930F92CDB7DEB79AEAA92E98E0B92EE8
:102220006E010894C11CD11C9924939400D000D055
:10223000EDB7FEB7B282A182D482C3820E94475911
:102240000F900F900F900F908981833149F58DE0A9
:1022500090E00E94A6599092B70B9091B30B9923EE
:1022600031F41092B60B87B78B7F87BF1EBC80916D
:10227000B50B8823A9F4992331F00E94FD107B014E
:102280008C0181E005C00E94FD107B018C0185E07E
:1022900060E070E040E050E020E030E00E94F314A5
:1022A0008981843109F58DE090E00E94A6599092D1
:1022B000B80B8091B30B882331F41092B60B87B71B
:1022C0008B7F87BF1EBC8091B50B882369F40E9469
:1022D000FD107B018C0188E060E070E040E050E0A0
:1022E00020E030E00E94F314898187FF12C08DE066
:1022F00090E00E94A659698170E06F77707089E064
:1023000040E050E020E030E0EE24FF2487010E940E
:10231000F3140E94E4398ACFC1E7D1E08FEB9BE050
:1023200040E050E060E070E00E94233E8091B50BF9
:10233000882319F480E090E041C080E090E004C080
:102340000196FE013197F1F70C9905C027E2803123
:102350009207B1F704C027E28031920761F410922E
:10236000B50B0E94FD107B018C0181E060E070E004
:1023700040E050E03CC0C39708F43DC00E948E0E80
:102380004091AD0890E0242F30E02F77821793071B
:1023900034F047FF02C080E005C081E003C00E9426
:1023A0008E0E8F5F0E94F80F0E948E0ED82E0E9414
:1023B000FD1016C00196FE013197F1F70C9905C08A
:1023C00027E280319207B1F703C08051974299F418
:1023D00081E08093B50B0E948E0ED82E0E94FD10D6
:1023E0007B018C0184E060E070E04D2D50E020E046
:1023F00030E00E94F3140C9BFECF90CF1F920F92FF
:102400000FB60F920BB60F921124EF92FF920F931B
:102410001F932F933F934F935F936F937F938F936C
:102420009F93AF93BF93EF93FF938FE18DBD82E0B6
:102430008CBD8DE080935F0C8EE080935E0C80916C
:10244000B60B882369F00E94FD107B018C0180E0AF
:1024500060E070E040E050E020E030E00E94F314E3
:10246000FF91EF91BF91AF919F918F917F916F916C
:102470005F914F913F912F911F910F91FF90EF909E
:102480000F900BBE0F900FBE0F901F9018958F9A54
:10249000979A8FE08A95F1F78F9A979881EF97E056
:1024A0000197F1F78F98979A8CE291E00197F1F7F5
:1024B00080B3E5E0F6E03197F1F7879902C080E05C
:1024C00008958095881F8827881F089520E030E0B0
:1024D000EAE0482F50E067E271E08F9A97988E2FDC
:1024E0008A95F1F7CA01022E02C0959587950A9444
:1024F000E2F780FD979ACB010197F1F7979A8E2F1B
:102500008A95F1F72F5F3F4F2830310531F7089555
:1025100020E080E03FE049EB50E08F9A9798932FBE
:102520009A95F1F78F98979A932F9A95F1F7869548
:1025300087998068FA013197F1F72F5F283069F7A2
:1025400008950E9447128CEC0E94661284E40E9457
:10255000661208958F929F92AF92BF92CF92DF92B0
:10256000EF92FF920F931F93DF93CF93CDB7DEB718
:1025700029970FB6F894DEBF0FBECDBF6C014B019B
:102580005A010E9447128CEC0E9466128EEB0E9448
:1025900066128E010F5F1F4F7AE0E72EF12CEC0ED2
:1025A000FD1E0E948812F80181938F01EE15FF0530
:1025B000C1F78A81482F50E0CA01887F9070883F18
:1025C000910521F481E0F601808302C0F6011082BA
:1025D000298130E047705070942F8827820F931F15
:1025E00034E0959587953A95E1F7F401808323FFD0
:1025F00004C081E0F501808302C0F50110822996B4
:102600000FB6F894DEBF0FBECDBFCF91DF911F9103
:102610000F91FF90EF90DF90CF90BF90AF909F9081
:102620008F9008950F931F938C010E9447128CEC9A
:102630000E9466128EE40E946612F80180810E9458
:102640006612F80181810E946612F80182810E945F
:1026500066121F910F910895BB98BA9AB99AB89AC9
:10266000C09A81E58DB981E08EB98EB18FB10895A0
:1026700080B3809581700895C09800008FB9779BD2
:10268000FECF0000C09A089585E50E943C138FB1EB
:102690000895AC01809B03C020E030E01DC020E025
:1026A00030E095E56AE470E0C098FA01E20FF31FAC
:1026B0000BC09FB9779BFECF8FB181932F5F3F4FA8
:1026C00082E02030380740F4809BF3CFC09AFB01B2
:1026D0003197F1F7809BE8CFC9010895AC016115EE
:1026E000710589F0C09820E030E009C0FA01E20FDE
:1026F000F31F80818FB9779BFECF2F5F3F4F261747
:102700003707A0F3C09A089580E092E00E94775ABC
:102710008C018091B20B8823A9F4C8010E9449134F
:10272000AC01009779F08091B10B882359F080912A
:10273000B50B882339F480915C0C90915D0CB80145
:102740000E94AA180E94E439E4CF0895982F6130BE
:1027500021F480916200816003C0809162008E7FCD
:1027600080936200809162008F7E809362000000FF
:102770008091620082608093620080916200877F16
:1027800080936200809162008F7B809362008091D1
:1027900062008B7F80936200809162008F7D8093C6
:1027A000620097FF05C0809162008860809362009C
:1027B000292F96FF05C0809162008064809362009B
:1027C00025FF05C08091620084608093620024FF31
:1027D00005C08091620080628093620081E090E099
:1027E0000197F1F7809162008D7F8093620083E909
:1027F00090E00197F1F7809162008260809362001F
:1028000080916200877F80936200809162008F7B5D
:1028100080936200809162008B7F80936200809140
:1028200062008F7D8093620023FF05C0809162006B
:1028300088608093620022FF05C0809162008064FE
:102840008093620021FF05C08091620084608093C4
:10285000620020FF05C08091620080628093620068
:1028600081E090E00197F1F7809162008D7F809385
:10287000620083E990E00197F1F708958F70806816
:1028800070E06170707096E0660F771F9A95E1F7BF
:10289000862B60E00E94A613089581E060E00E940C
:1028A000A6130895CF93DF93982FEA018881882398
:1028B00061F0892F8F5F0E943E1404C0899161E00E
:1028C0000E94A61389818823C9F7DF91CF910895CB
:1028D000CF93DF9380E460E00E94A613C4EBD8E0BE
:1028E000899161E00E94A61388E0C43FD807C1F730
:1028F00081E08093C30BDF91CF910895E1E6F0E092
:1029000080818F678083E2E6F0E080818E7F808324
:1029100080818F7E80838EEF97ED0197F1F7808124
:1029200082608083808180628083808184608083F4
:1029300080818F7B80838081877F808321E030E06E
:10294000C9010197F1F780818D7F80838AE09BE345
:102950000197F1F7808182608083C9010197F1F7C7
:1029600080818D7F808381E791E00197F1F78081FD
:1029700082608083C9010197F1F780818D7F808318
:1029800043E950E0CA010197F1F7808182608083BA
:1029900080818F7D8083C9010197F1F780818D7FD0
:1029A0008083CA010197F1F788E260E00E94A613D4
:1029B0008CE060E00E94A61386E060E00E94A6130F
:1029C0000E9468140895CF93DF93EA010E943E1499
:1029D00004C061E00E94A613219688818823C9F76C
:1029E000DF91CF9108952F923F924F925F926F9215
:1029F0007F928F929F92BF92CF92DF92EF92FF923F
:102A00000F931F93DF93CF93CDB7DEB72B970FB6FE
:102A1000F894DEBF0FBECDBFB82E2B011A013B8745
:102A20002A8737014801082F10E045E0000F111FE9
:102A30004A95E1F70C50174F80E060E00E943E1489
:102A40006801FF24D6018D916D0161E00E94A613FB
:102A5000F394B0E1FB16B1F730E1E32EF12CE00E78
:102A6000F11E80E061E00E943E14F801808961E07F
:102A70000E94A6130F5F1F4FE016F106B1F7F2E0B8
:102A8000BF1609F451C0FB1538F0BB2071F081E08E
:102A9000B81609F0D0C018C093E0B91609F455C0B3
:102AA000A4E0BA1609F0C7C080C0EDB7FEB73897EA
:102AB0000FB6F894FEBF0FBEEDBF31968E010F5FCB
:102AC0001F4FADB7BEB70EC0ADB7BEB718970FB6A4
:102AD000F894BEBF0FBEADBFEDB7FEB731968E0105
:102AE0000F5F1F4F12961C930E9311978EEA98E07A
:102AF0009383828364827582868297820E94D159F1
:102B0000F80101900020E9F78DB79EB708960FB63F
:102B1000F8949EBF0FBE8DBF802F8E1B8F5E60E02E
:102B2000A8010E94521487C0C2018E010F5F1F4F7F
:102B3000B8014AE050E00E944863F801019000208B
:102B4000E9F7802F8E1B835F72C08E010F5F1F4FCE
:102B5000C201B8014AE050E00E944863F801D80180
:102B60000D900020E9F7EA1B8E2F805F60E0A8013E
:102B70000E94E314C101B8014AE050E00E9448639A
:102B8000F801D8010D900020E9F7EA1B8E2F875F2E
:102B900061E0A8010E94E3148A859B85B8014AE0A0
:102BA00050E00E94486389E042C08E010F5F1F4FD2
:102BB000ADB7BEB718970FB6F894BEBF0FBEADBF86
:102BC000EDB7FEB7319612961C930E9311978EEACD
:102BD00098E09383828364827582868297820E94C2
:102BE000D159D8010D900020E9F71197A01BB10B26
:102BF000EDB7FEB738960FB6F894FEBF0FBEEDBF27
:102C000020E1F22E8F2D8A1B60E0A8010E94521451
:102C1000C101B8014AE050E00E944863F801019008
:102C20000020E9F73197E01BF10B8F2D8E1B61E03F
:102C3000A8010E94E3142B960FB6F894DEBF0FBED6
:102C4000CDBFCF91DF911F910F91FF90EF90DF905B
:102C5000CF90BF909F908F907F906F905F904F909C
:102C60003F902F9008950E94CD3C89E999E06BEB4D
:102C700070E040E050E020E033E00E94E33E8EEF61
:102C80000E9468390E94E4390E94303920919E09DF
:102C90002F3FC1F395B785B7837E822B85BF85B75C
:102CA000806285BF889585B78F7D85BF85B79C710C
:102CB000837E982B95BFE6CF0F931F93CF93DF931F
:102CC0008C01C091C40BD091C50BFE011BC0808D3F
:102CD000918D8017910799F4828D938DA48DB58D78
:102CE00082179307A407B50751F4868D978D861731
:102CF000970729F48389882311F09F0117C0019059
:102D0000F081E02D309719F70DC08B89813039F4AF
:102D1000888D998D8017910711F49E0107C0099045
:102D2000D881C02D209789F720E030E0C901DF91DC
:102D3000CF911F910F910895CF93DF93FC01EA018A
:102D4000009709F45FC080E162307807F1F080E11C
:102D50006330780744F46230710571F0615070415E
:102D600009F04AC037C080E165307807C9F0665085
:102D7000704109F041C01DC04115510589F1223053
:102D8000310571F5ED5AFF4F08C04115510541F16C
:102D90002230310529F5E85BFF4F8081918127C002
:102DA00041155105E9F024303105D1F4E559FF4FC3
:102DB00008C041155105A1F02430310589F4E959C5
:102DC000FF4F80819181A281B38188839983AA83F7
:102DD000BB830FC04115510519F02230310529F090
:102DE000EF59FF4F86E190E00BC08189928999836A
:102DF000888320E030E008C0EF59FF4F8AE290E07E
:102E0000918380832FEF3FEFC901DF91CF91089528
:102E1000FC01009719F426E230E004C0EF59FF4F9F
:102E200020813181C9010895CF93DF93DC01EA014C
:102E30006A30710561F06A30710534F06B307105EC
:102E4000B1F06C30710519F02FEF3FEF1CC0FD01A0
:102E5000E65BFF4FAA5BBF4F8D919C912081318132
:102E6000821B930BAA2797FDA095BA2F06C01D962B
:102E70008D919C911E97A0E0B0E088839983AA83EE
:102E8000BB8320E030E0C901DF91CF9108950F931B
:102E90001F93CF93DF93EC018C01035B1F4F08C09E
:102EA00080819181D8018D939C93CF010E94C3535F
:102EB000D801ED91FC91309799F707C080819181FD
:102EC00099AF88AFCF010E94C353E8ADF9AD3097F9
:102ED000A9F708C08081918199838883CF010E94DE
:102EE000C35302C0CF5ADF4FE881F981309791F781
:102EF000DF91CF911F910F9108952F923F924F92A2
:102F00005F926F927F928F929F92AF92BF92CF9279
:102F1000DF92EF92FF920F931F93DF93CF9300D036
:102F200000D000D0CDB7DEB79E838D837A836983CE
:102F30004A010E94E4392D813E81232B89F1ED81E4
:102F4000FE818389843019F08389853019F52981C0
:102F50003A81232B09F4DFC08114910409F4DDC008
:102F60004FE4A42EB12C6D817E81A60EB71E36E4EF
:102F7000C32ED12CC60ED71E2AE4E22EF12CE60E6B
:102F8000F71E8B0109591F4F1AC0ED81FE818389FD
:102F9000843051F0EF59FF4F89E390E091838083B3
:102FA00088248A94982CB9C0F801408151816281AB
:102FB0007381C5010E94BF3D892B09F0ACC0F601A9
:102FC00080819181F7012081318182179307E9F295
:102FD000821B930B8815990524F4009709F49BC074
:102FE0004C017901662477242D813E81235B3F4F7C
:102FF0003C832B8396E4292E312C6D817E81260E15
:10300000371E8CE4482E512C460E571E3CC0EB81D7
:10301000FC81A080B180F501C188D288CE18DF087C
:10302000840106191709C016D10608F486014981E2
:103030005A81460D571DF501278530892E0D3F1DFC
:10304000CA01B901A8010E941A63E00EF11E0C1515
:103050001D05B8F0F50180819181EB81FC819183A0
:103060008083F101808191818E199F0991838083F2
:10307000C5010E94C353F201808181508083EE24F8
:10308000FF24600E711E6814790408F22D813E81C0
:10309000265B3F4FF901F182E082EA54F040FE8363
:1030A000ED8383898430C9F5EC5BFF4F408151810A
:1030B000349620813181E854F040FE83ED83C401D1
:1030C000840F951F281739070CF4C9012D813E8103
:1030D0002D5A3F4FF90120813181E355F040FE83A5
:1030E000ED832417350778F02817390760F4EC5B77
:1030F000FF4F91838083E454F040FE83ED83CF0142
:103100000E9405250AC02D813E812C5B3F4FF901AD
:103110009183808302C088249924C40126960FB627
:10312000F894DEBF0FBECDBFCF91DF911F910F91FD
:10313000FF90EF90DF90CF90BF90AF909F908F90D7
:103140007F906F905F904F903F902F9008950E94D6
:103150007D1708958F929F92AF92BF92CF92DF9288
:10316000EF92FF920F931F93CF93DF93EC014B01EC
:103170008A010E94E439209709F458C0811491040F
:1031800009F457C00115110509F455C0CD5ADF4F98
:1031900088819981C355D0408017910708F48C012C
:1031A000FAE3AF2EB12CAC0EBD1EE3E5CE2ED12C32
:1031B000CC0EDD1E7BE6E72EF12CEC0EFD1E8B897E
:1031C000843039F0CF59DF4F89E390E099838883C9
:1031D0002DC049A55AA58DA19EA1481B590B9A0146
:1031E0003695279536952795F60180819181281788
:1031F000390738F48DA99EA9841B950B8017910778
:1032000058F4F7014081518162817381C5010E94A8
:10321000BF3D892BA1F20DC088A1806188A3CE019A
:10322000B401A8010E943622892B29F00FEF1FEF6D
:1032300002C000E010E0C801DF91CF911F910F9113
:10324000FF90EF90DF90CF90BF90AF909F908F90C6
:103250000895CF92DF92EF92FF920F931F93CF9337
:10326000DF936C017B018A01C0E0D0E011C0B7019F
:103270006C0F7D1FA8014C1B5D0BC6010E94AA1894
:10328000181619061CF0CFEFDFEF05C0C80FD91FC5
:10329000C017D10764F3CE01DF91CF911F910F9139
:1032A000FF90EF90DF90CF900895AF92BF92CF92B2
:1032B000DF92EF92FF920F931F93CF93DF938C01D6
:1032C000E72F6A01009709F4E6C0DC0153968C9160
:1032D000843041F00F591F4F89E390E0F80191834A
:1032E0008083D9C0D8011D964D915C911E97C11461
:1032F000D104C9F44115510509F4D0C01F966D9150
:103300007C915097C8010E942919F80127853089BE
:1033100097FF02C0C90176C0C9010E94715AF80125
:1033200016861586BBC0C62FD72F5E01D8015196D1
:103330006D917C9152974115510569F5C616D706D6
:1033400010F4E60113C0C6010E947A61EC01760117
:10335000E81AF90AC801B501A7010E94291997FDC9
:103360009AC0209709F49AC0AE0CBF1CF80181895D
:1033700092890E94775AD80150969C938E931F97FA
:10338000009709F488C0B501AE010E941A63F801E4
:10339000C587D68783C0C601840F951FD8011F96A5
:1033A0002D913C9150978617970780F4240F351F75
:1033B000C9016C2F7E2FA6010E941A63F801858532
:1033C00096858C0D9D1D9687858768C07B01E41AC4
:1033D000F50A240F351FC9016C2F7E2FA7010E940B
:1033E0001A63D8011F966D917C91509751964D911B
:1033F0005C915297C8010E94291997FF0BC0F801F0
:10340000878590890E94715AD8011E961C921E923F
:103410001D9741C05E01AE0CBF1C96012E193F09DD
:10342000F8016189728926173707E0F0C9010E9407
:103430007A61EC017901E81AF90AC801B501A7011E
:103440000E94291997FF0BC0D8011F968D919C915E
:1034500050970E94715AF801168615861CC0AE0C52
:10346000BF1C01C0E901209759F0D8011F968C912B
:103470001F9750969C91B501AE010E941A6305C03A
:10348000F801878590890E94715AD8011E96DC93B5
:10349000CE931D9703C0CC24CA94DC2CC601DF91C7
:1034A000CF911F910F91FF90EF90DF90CF90BF9041
:1034B000AF900895CF92DF92EF92FF920F931F93F8
:1034C000CF93DF936C017B018A014115510519F4FB
:1034D000C0E0D0E00CC08EE89CE0BA010E948637C4
:1034E000EC01009721F0B701A8010E94E762C60134
:1034F000BE01A8010E945519182F092F209729F005
:103500008EE89CE0BE010E94DE37812F902FDF9174
:10351000CF911F910F91FF90EF90DF90CF90089582
:103520000F931F938C0160E070E040E050E00E9438
:103530005519C8010E94592E1F910F9108950F939C
:103540001F93CF93DF93EC018A01009709F47BC0AE
:1035500080E16230780759F1E0E163307E0744F49E
:103560006230710571F06150704109F066C04BC066
:1035700080E16530780761F16650704109F05DC007
:1035800030C04115510509F444C02230310509F01D
:1035900040C08B89882329F0CF59DF4F88E390E022
:1035A00050C0CD5ADF4FFA01808191810EC0411584
:1035B000510579F12230310561F5FA01808191815F
:1035C000C85BDF4F9983888324979983888332C0AF
:1035D00041155105F1F024303105D9F4C559DF4FBB
:1035E00008C041155105A9F02430310591F4C9599D
:1035F000DF4FF80180819181A281B3818883998313
:10360000AA83BB8317C04115510519F0223031053B
:1036100029F0CF59DF4F86E190E013C0CE0160E082
:1036200070E040E050E00E945519F80180819181DE
:103630009A8B898B20E030E008C0CF59DF4F8AE2B7
:1036400090E0998388832FEF3FEFC901DF91CF91FD
:103650001F910F910895FC01062E672F702D718F19
:10366000608F0E94A72C08950F931F93CF93DF9331
:103670008091C80B882381F486E06CE671E20E9499
:103680003C1D892B09F05DC00E948724892B09F01D
:1036900058C081E08093C80B81E090E063E770E060
:1036A0000E94555AEC018C01009709F44CC01B8A0A
:1036B00084E08C8387EA98E19E838D8385E599E198
:1036C00098878F838AE59AE19A87898784E197E1D1
:1036D0009C878B870E94933A69A37AA38BA39CA3B0
:1036E0006DA37EA38FA398A769A77AA78BA79CA792
:1036F0000C5B1F4F80E99CE0F801918380830C5F95
:103700001F4FF80191838083055F1F4F28E132E04E
:10371000F801318320830A5F1F4F88EE93E0F801A0
:1037200091838083095510408091C40B9091C50B03
:10373000998388833A8B298B1093C50B0093C40B14
:1037400002C000E010E0C801DF91CF911F910F91FE
:103750000895CF93DF93EC01E091C40BF091C50B7A
:10376000A4ECBBE014C0EC17FD0769F488819981D3
:1037700011969C938E93CE010E9447178D859E854E
:10378000892B71F007C0DF010190F081E02D3097A7
:1037900051F70EC08F8598890E94715A1E861D862A
:1037A00083E7FE0111928A95E9F7CE010E94715AD2
:1037B000DF91CF9108959C01E091640CF091650C2C
:1037C0000AC0828193818217930711F49F0107C079
:1037D0000190F081E02D3097A1F720E030E0C901A1
:1037E00008954F925F926F927F928F929F92AF92C5
:1037F000BF92CF92DF92EF92FF920F931F93CF93DE
:10380000DF935C014B013A01522E432EFC0184816F
:103810009581892B31F4C5010696B701A6010E9456
:10382000BF3DF501C481D581209719F400E010E077
:1038300031C088819981F50195838483EF81F88572
:1038400084859585A685B785F40180839183A283BD
:10385000B383EB85FC8580819181082E892F902D83
:10386000F3019183808349895A89401751070CF4E9
:103870008A01F50180859185841B950B918780874E
:103880006F857889852D942DA8010E941A63CE0139
:103890000E94C353C801DF91CF911F910F91FF90F8
:1038A000EF90DF90CF90BF90AF909F908F907F90E0
:1038B0006F905F904F9008956F927F928F929F923A
:1038C000AF92BF92CF92DF92EF92FF920F931F932E
:1038D000CF93DF934C015A016B01390180E090E0F6
:1038E00060E8A7010E94A855EC01009741F48CE024
:1038F00090E0F401958784870FEF1FEF13C08F8549
:103900009889B801A7010E941A63C401B601A501F4
:1039100093018E010E944B2F8C01009719F4CE0168
:103920000E94C353C801DF91CF911F910F91FF9067
:10393000EF90DF90CF90BF90AF909F908F907F904F
:103940006F900895CF93DF93EC018091CB0B882388
:1039500069F481E161EC7EE20E943C1D892B19F043
:1039600020E030E052C081E08093CB0B2097A1F59E
:103970000E94F13A9B014091C90B5091CA0B41152D
:10398000510551F02E7030702160240F351F309397
:10399000CA0B2093C90B04C07093CA0B6093C90B68
:1039A000C091C90BD091CA0BD06CD093CA0BC093F5
:1039B000C90B9E01022E232F302DE091640CF09153
:1039C000650C08C0828193818217930789F2019068
:1039D000F081E02D3097B1F781E090E064E170E094
:1039E0000E94555AFC019C01009779F00C2ECD2FB6
:1039F000D02DD383C2838091640C9091650C918308
:103A00008083F093650CE093640CC901DF91CF9142
:103A10000895DF92EF92FF920F931F93CF93DF935E
:103A20007C018B01DB011796ED91FC911897D184F5
:103A3000C091CC0BD091CD0B12C08A81D81661F405
:103A4000EB81FC81309741F0C701B8010995892BC2
:103A500019F420E030E007C00990D881C02D2097EC
:103A600061F72FEF3FEFC901DF91CF911F910F91C8
:103A7000FF90EF90DF9008951F93CF93DF93182F5F
:103A8000EB01A091CC0BB091CD0B08C012968C919C
:103A900012978117F9F00D90BC91A02D1097B1F7F6
:103AA00024C012838091CC0B9091CD0B009759F4D8
:103AB000B093CD0BA093CC0B89E09DE190938D0C3E
:103AC00080938C0C07C011969C938E93B093CD0B72
:103AD000A093CC0B1496DC93CE93139720E030E0A8
:103AE000C901DF91CF911F91089581E090E065E0D9
:103AF00070E00E94555AFC01DC01009791F62FEF0F
:103B00003FEFEECFDF92EF92FF920F931F93CF9391
:103B1000DF937B018C01EA014115510521F01882E8
:103B200019821A821B822FEFE2162FEFF2062FEF77
:103B300002072FEF120789F0D801C701082E8B2F3B
:103B4000B02D092E9A2FA02D80709070A070B07F9C
:103B500080509040A040B04E39F4E091660CF09156
:103B6000670C3097E1F53EC0D090660C7091670C01
:103B700060E08D2D972F9C01F90114C086819781FB
:103B8000A085B1858E219F21A023B123228133817D
:103B90004481558182179307A407B50731F001903E
:103BA000F081E02D309751F71DC0209761F082859C
:103BB0009385A485B5850097A105B10521F088837B
:103BC0009983AA83BB8386859785892B41F4E284F8
:103BD000F384048515856F5F643059F603C026852C
:103BE000378502C020E030E0C901DF91CF911F91FD
:103BF0000F91FF90EF90DF9008952F923F924F9298
:103C00005F926F927F928F929F92AF92BF92CF926C
:103C1000DF92EF92FF920F931F93CF93DF932B01CD
:103C20003C0149015A011601C091660CD091670C04
:103C300086E6C82E8CE0D82E04C06E010990D8818B
:103C4000C02D209749F08E819F81A885B98588165F
:103C50009906AA06BB0688F380E190E00E94775A95
:103C6000FC01009719F42FEF3FEF19C048205920AD
:103C70006A207B2042825382648275828682978288
:103C8000A086B186E286F386048715873786268666
:103C9000D183C083D6018D939C9320E030E0C9018D
:103CA000DF91CF911F910F91FF90EF90DF90CF9018
:103CB000BF90AF909F908F907F906F905F904F904C
:103CC0003F902F900895DF93CF9300D000D0CDB7D1
:103CD000DEB7FC0119821A821B821C82DE0111965A
:103CE00040E0808180538A3098F520E030E0C901BF
:103CF00063E0880F991F6A95E1F7220F331F820F47
:103D0000931F2191332727FD309520533040280FF2
:103D1000391F808180333CF08A332CF42F3F3105EA
:103D200031F328F315C02F3F310509F088F44F5FB8
:103D30002C9380818E3239F0443051F429813A81BC
:103D40004B815C8109C0443019F011963196C9CF7E
:103D50002FEF3FEF4FEF5FEFB901CA010F900F90C8
:103D60000F900F90CF91DF910895AF92BF92CF92B5
:103D7000DF92EF92FF920F931F93DF93CF93CDB714
:103D8000DEB727970FB6F894DEBF0FBECDBF6C83AA
:103D90007D838E839F83E4E0EE2EF12CEC0EFD1EDE
:103DA00000EE1BE06E010894C11CD11C5EE277E0BE
:103DB000A72EB12CAC0EBD1ED7014C9130E0842F44
:103DC0006AE00E946E61292F842F0E946E61482F45
:103DD000F601E30FF11D205D20833F5F882379F713
:103DE000932FF7011082D80106C03150F601E30F7E
:103DF000F11D80818D933323C1F7F801E90FF11D87
:103E0000DF015D938D01EA14FB0421F00894E11CAD
:103E1000F11CD2CF108280EE9BE027960FB6F8946B
:103E2000DEBF0FBECDBFCF91DF911F910F91FF90ED
:103E3000EF90DF90CF90BF90AF9008952F923F9278
:103E40004F925F926F927F928F929F92AF92BF92AA
:103E5000CF92DF92EF92FF920F931F93DF93CF9356
:103E600000D000D000D0CDB7DEB71C014A015B0105
:103E700028013901C982DA82EB82FC82DC011F96BB
:103E80008C911F9750969C914115510561057105C4
:103E900081F48090780C9090790CA0907A0CB0907E
:103EA0007B0C81149104A104B10419F42FEF3FEFAE
:103EB000AFC08D839E83ED81FE8183869486A58627
:103EC000B686411451046104710439F48FEF482E11
:103ED0008FEF582E8FEF682E712CAD81BE815396D7
:103EE0004D925D926D927C925697C301B20168210A
:103EF00079218A219B21A3019201EE24FF248701CD
:103F000061010E94FD1D89819A81AB81BC8100976E
:103F1000A105B10571F060E070E080E090E020E084
:103F200030E040E050E0E980FA800B811C810E9483
:103F3000FD1DA9E6BCE0F101329689E001900D92E9
:103F40008150E1F7AD81BE8115966C91159716965B
:103F50009C91169717965C91179718964C91189705
:103F600019963C9119971A962C91892F86238523AF
:103F70008423832382238F3F81F0962B952B942BD0
:103F8000932B922B51F0A2E7BCE0ED81FE81359698
:103F900086E001900D928150E1F78092780C90922A
:103FA000790CA0927A0CB0927B0C40927C0C5092CF
:103FB0007D0C60927E0C70927F0C89819A81AB811E
:103FC000BC810097A105B105A1F48091800C90916E
:103FD000810CA091820CB091830C88259925AA258B
:103FE000BB2584219521A621B7210097A105B10504
:103FF00061F089819A81AB81BC818093800C909320
:10400000810CA093820CB093830C0E9428219C0108
:10401000C90126960FB6F894DEBF0FBECDBFCF9173
:10402000DF911F910F91FF90EF90DF90CF90BF90A5
:10403000AF909F908F907F906F905F904F903F9048
:104040002F9008954F925F926F927F928F929F92DE
:10405000AF92BF92CF92DF92EF92FF920F931F9396
:10406000DF93CF93CDB7DEB72A970FB6F894DEBFB4
:104070000FBECDBF562E472E2F83388749875A87CC
:10408000370148010E94343EFC01009709F4B0C09A
:104090008385833009F0ACC0FA83E983A785B089B2
:1040A0008C91863009F042C0258936892115310569
:1040B00041F18E010D5F1F4FCF0164E070E1A80157
:1040C000F9010995E981FA8125893689CF0165E0F1
:1040D00070E1452D542DF90109958B819C81AD81AD
:1040E000BE8181608B839C83AD83BE83E981FA812D
:1040F00025893689CF0163E070E1A801F9010995AE
:104100000AC01596852D942D9C01F90186E0019039
:104110000D928150E1F789819A814F815885698597
:104120007A8594018301760165015EC0873109F0CB
:104130005FC0C188D288252D342D8F819885A985AF
:10414000BA85F60181A392A3A3A3B4A3E114F10459
:104150000105110521F466246A94762C4301D601E9
:1041600099966D927D928D929C929C972115310526
:1041700051F0F90180819181A281B381F60185A37B
:1041800096A3A7A3B0A7C6010E945D3DF601FF96C6
:104190008081918167E171E0AE014F5F5F4F0E94C6
:1041A0003957C60140E65AEE60E070E00E94BF3D1C
:1041B000892BF1F4D601DC968C91DC978930C1F41F
:1041C00091964D915D916D917C91949799960D91F9
:1041D0001D912D913C919C979596CD90DD90ED9001
:1041E000FC90989789819A810E941E1F9C0102C0B1
:1041F0002FEF3FEFC9012A960FB6F894DEBF0FBE2E
:10420000CDBFCF91DF911F910F91FF90EF90DF9085
:10421000CF90BF90AF909F908F907F906F905F9066
:104220004F900895AF92BF92CF92DF92EF92FF929C
:104230000F931F93AA24BB2465010E9422201F9183
:104240000F91FF90EF90DF90CF90BF90AF900895C7
:1042500080E28093680C80E490E068E67CE040E2D5
:1042600050E00E941856892B19F420E030E002C07B
:104270002FEF3FEFC9010895CF93DF93EC0180E466
:1042800090E068E67CE040E250E00E941B56892BFB
:1042900071F48091680C803251F489E69CE0BE0193
:1042A0000E942A63009719F420E030E011C0E8E68C
:1042B000FCE080E2DF011D928A95E9F73A96AFE9CA
:1042C000B9E086E00D9001928150E1F72FEF3FEFCA
:1042D000C901DF91CF910895FB01A385B4851097A3
:1042E00069F1828183FF2AC01C968C911C9782956C
:1042F0008F70880F880F843108F1282F30E0858572
:10430000968582179307D4F0821B930B928B818B37
:10431000892B71F01C968C911C9782958F7090E080
:10432000880F991F880F991FA80FB91FB08BA787F7
:1043300036872587CF010E94A42403C0CF010E94A5
:10434000C35380E090E00895AF92BF92CF92DF9286
:10435000EF92FF920F93CF93DF935C01FC01678193
:104360007085C385D4858D8582FD71C0F501128A63
:10437000118A84E190E096878587288139818A8136
:104380009B81998388833B832A838D8584FF0FC01B
:1043900084E08D8788859985AA85BB858C839D83DC
:1043A000AE83BF83188619861A861B8620C02C818F
:1043B0003D814E815F8181FF10C0022E252F502D3F
:1043C000032E342F402D2F5F3F4F4F4F5F4F022E54
:1043D000252F502D032E342F402D288739874A87CB
:1043E0005B871C821D821E821F8284E18D876B0188
:1043F00080E58C871F861E861B8A1A8A198A188A6E
:10440000F501E584F6840E2CEF2CF02CFB0160897D
:10441000718982899389248535854685578506E08B
:104420000E941D30DC01CB01F50145855685BE019A
:104430000E941630998B888BF601448555856685D8
:10444000778586E095010E944B31892B19F4C501CF
:104450000E94C35380E090E0DF91CF910F91FF90D5
:10446000EF90DF90CF90BF90AF9008956F927F92C2
:104470008F929F92AF92BF92CF92DF92EF92FF9274
:104480000F93DF93CF9300D0CDB7DEB76C01F62E3C
:10449000E72E3A014115510531F4DC0190968C91DB
:1044A0008B7009F4B1C1F60180A181FF02C008E15F
:1044B00001C004E180E090E060E4402F50E00E9401
:1044C000A8554C01009709F483C1FC01A384B4846E
:1044D000D60158968D919C915997F50191838083CF
:1044E0005E968D919C915F9793838283000F000F5E
:1044F000048790963C919097232F277F90962C933A
:10450000909799968D919D910D90BC91A02D082E1C
:104510008B2FB02D092E9A2FA02D84839583A683EF
:10452000B78324FF1FC080E18587377ED601909630
:104530003C93E0E4F0E0CE0EDF1EF6018081918135
:10454000A281B38120EC3FEFC20ED31E082E8B2F29
:10455000B02D092E9A2FA02DF50180879187A28773
:10456000B38708C0D5011D961C92F50110861186EF
:1045700012861386D60190962C9121FF36C0E3E572
:10458000F0E0CE0EDF1ED6018D919C91EDEAFFEF9B
:10459000CE0EDF1E082E892F902D9A838983D50198
:1045A0001D968C911D9782601D968C932D7FF60130
:1045B00020A381A592A5A3A5B4A50196A11DB11D17
:1045C00081A792A7A3A7B4A782E0D50154968C93A4
:1045D000549784E055968C935597898156968C9381
:1045E00056978A8157968C9347C06114710469F17C
:1045F000C40160E8A3010E94A8554C01009729F46A
:10460000E1E6F0E0CE0EDF1EE7C0FC018785908971
:104610006F2D7E2DA3010E941A63C301A0E0B0E0BC
:10462000F60121A532A543A554A5280F391F4A1F1D
:104630005B1FD60199962D933D934D935C939C9768
:10464000F50185858860858717C020FF15C0D501D5
:104650001D968C911D9781601D968C932E7FF6017F
:1046600020A381A592A5A3A5B4A50196A11DB11D66
:1046700081A792A7A3A7B4A724E430E0C20ED31E5B
:10468000D6012D913C91EFE0F0E0CE0EDF1ED60179
:104690008D919C91EDEAFFEFCE0EDF1E28173907B2
:1046A00030F4D5011F961C921E921E9706C0022E52
:1046B000232F302DF50137872687D50151961C927F
:1046C0001E92509753961C921E925297F401E188C5
:1046D000F28885859685E80EF91E0E2CEF2CF02CBD
:1046E000D60154966D917D918D919C9157975A96D4
:1046F0002D913D914D915C915D9706E00E941D309A
:10470000DC01CB01F40145855685B5010E94E02FFF
:10471000D4011F966D917C91509751964D915C916B
:1047200052970E941630F501918B808B672839F4DF
:10473000858590E083709070892B09F453C0D40173
:104740001D921C92D601D896ED91FC91D997309785
:1047500099F4D9969C928E92D8970E94F13AEFE5FF
:10476000F0E0CE0EDF1E6160D6016D937C93E1EA2E
:10477000FFEFCE0EDF1E09C0CF010190F081E02DCA
:104780003097D1F7FC019182808296012B5A3F4FDE
:10479000F90180819181A281B3810097A105B105C2
:1047A00081F4F50184819581A681B781082E8B2F34
:1047B000B02D092E9A2FA02DF90180839183A28319
:1047C000B383C40160E00E94C4547C01009759F493
:1047D00021E630E0C20ED31E87E390E0D6018D9330
:1047E0009C930CC07401F601428D538D648D758DC0
:1047F00086E097010E944B31892B19F02FEF3FEF94
:1048000005C0C7010E94C35320E030E0C9010F90EA
:104810000F90CF91DF910F91FF90EF90DF90CF90AD
:10482000BF90AF909F908F907F906F900895CF939F
:10483000DF939C01DB011D968D919C911E974597FE
:10484000A0F11B96ED91FC911C977496E901CD5A4D
:10485000DF4F1AC0613019F0623099F402C031960E
:1048600013C0528140E08381282F30E0242B352B68
:10487000888199812817390710F439832883349661
:1048800003C08181E80FF11D6081662371F01B96E2
:104890008D919C911C979F01281B390B1D968D9122
:1048A0009C911E9728173907ACF2DF91CF9108959C
:1048B000CF93DF93EC01CF59DF4F798368831A924E
:1048C0001A921A921A92CD55D0408B89863018F0E0
:1048D0008AE08B8B01C01B8ACE010E944717CE0154
:1048E000815B9F4F0E945D3DCE01CA960E945D3D57
:1048F000CE018D599F4F0E945D3DCE018B599F4F38
:104900000E945D3D80E090E0DF91CF91089580911D
:10491000F00B9091F10B892B99F485EA99E061E213
:104920007DE240E050E020E031E00E94E33E9093E1
:10493000F10B8093F00B892B19F42FEF3FEF02C09E
:1049400020E030E0C9010895CF92DF92EF92FF920C
:104950000F931F93CF93DF937C01FC011182108290
:104960008091F00B9091F10B892B21F4C7010E94EB
:10497000A42142C0C090880CD090890CC114D104ED
:1049800029F4F092890CE092880C2EC0F701C585BD
:10499000D68581859285C80FD91F81899289C80FD4
:1049A000D91F0091F20B1091F30B0050184F0C0F10
:1049B0001D1F8EE89CE00E945B3808171907C8F499
:1049C0008091F20B9091F30B8C0F9D1F9093F30B42
:1049D0008093F20BC601F601C080D180C114D104CE
:1049E000C9F7FC01F182E0828AE89CE00E946A3DFE
:1049F00003C0C7010E94C353DF91CF911F910F9154
:104A0000FF90EF90DF90CF900895FC01009719F48C
:104A10002FEF3FEF0CC080A1886180A3CF0160E041
:104A200070E040E050E00E94362220E030E0C90112
:104A300008950F931F93CF93DF93EC018B01DC015B
:104A4000A35BBF4FED91FC911197309751F0CF01CF
:104A50000190F081E02D3097D1F7FC0111830083A4
:104A600002C06D937C93FE01EA5BFF4FD801519623
:104A70008D919C91529720813181820F931F918358
:104A80008083FE01E05CFF4F51966D917C915297BF
:104A9000CB01AA2797FDA095BA2F208131814281B1
:104AA0005381820F931FA41FB51F80839183A2831C
:104AB000B383FE01EC5BFF4F80819181681779071A
:104AC00018F01182108204C0861B970B918380839B
:104AD00028A1822F806188A3F80180819181892B90
:104AE00019F01182108202C0286128A3FE01E45B44
:104AF000FF4F10811F5F108319302CF1CA5BDF4F0D
:104B0000688179812796E881F981CD54D040212FA1
:104B100018C0818992898F3F910509F054F4CF0123
:104B20000E942A54C45BDF4F181B1883CC54D0401A
:104B30000AC0215028303CF0681B790B0190F081AD
:104B4000E02D309731F7CE0160E070E040E050E0BA
:104B50000E943622DF91CF911F910F9108951F93EC
:104B6000CF93DF93EC01162F8B89853009F466C053
:104B7000863088F4823051F1833038F4882309F488
:104B800065C0813009F09EC01DC0833039F184308A
:104B900009F098C011C0883009F48DC0893030F414
:104BA000863069F1873009F08DC04DC08930C1F180
:104BB0008A3009F087C07FC0653079F1663009F02E
:104BC0007AC03EC0633009F076C005C0633019F08A
:104BD000643049F422C088A182613EC0643009F487
:104BE00071C0653020F4113009F065C06BC06530CC
:104BF00039F1663009F05FC088A181602DC067304F
:104C000061F0683020F4663009F055C05BC0862F33
:104C10008950823008F04FC055C088A188611CC0FF
:104C20006A3019F420E030E002C02FEF3FEF88A196
:104C3000886188A32115310581F03FC06830D9F51E
:104C400088A1816109C06A30B1F53CC06130D1F101
:104C5000623089F588A1826088A381E01B8B88235C
:104C6000B1F0CE0160E070E040E050E00E943622FA
:104C7000892B69F0123059F4CF59DF4F80E490E06E
:104C800099838883CE0104960E94D53C14C01530C8
:104C900079F4CE01815B9F4F0E945D3DCE018D591D
:104CA0009F4F0E945D3DCE018B599F4F0E945D3DFD
:104CB00020E030E002C02FEF3FEFC901DF91CF913C
:104CC0001F91089580E0CACFCF93DF93EC019B0141
:104CD000FA01DB0150964D915D916D917C91539756
:104CE0004C8B5D8B6E8B7F8B808191819F8F8E8FA4
:104CF0001C964D915D916D917C911F974A8F5B8FB2
:104D00006C8F7D8F84819581A681B781082E8B2F32
:104D1000B02D092E9A2FA02D8CAF9DAFAEAFBFAF97
:104D20008DA79EA7AFA7B8ABC05CDF4F0196A11DB2
:104D3000B11D88839983AA83BB83C054D0408685E4
:104D40009785082E892F902D9EAB8DABF901648538
:104D500075858685978540E050E00E94821DFC01A4
:104D6000009729F10784F089E02D8789908D889735
:104D7000CD5ADF4F28813981C355D04021153105E7
:104D800019F08217930730F4CD5ADF4F9983888347
:104D9000C355D040CD5ADF4F28813981C355D0400B
:104DA00089899A892817390710F43A8B298BDF9162
:104DB000CF9108950F931F93CF93DF93EC01FC01E4
:104DC000E55AFF4F808191810196918380830197FD
:104DD000089720F0CE016CE370E013C0E8ADF9ADA8
:104DE000008111814A8D5B8D6C8D7D8D86E09F01E8
:104DF0000E944B31892B51F019AF08AFCE0162E30D
:104E000070E00E9458242FEF3FEF18C00E94F13A43
:104E1000C15ADF4F616079836883FE0136978081D4
:104E2000918127E28031920718F4880F991F02C000
:104E300080E29EE49183808320E030E0C901DF912D
:104E4000CF911F910F910895AF92BF92CF92DF92B1
:104E5000EF92FF920F931F93CF93DF93EC01FB012F
:104E6000BA01A084B184C284D3840A2CAD2CD02C86
:104E70000B2CBC2CC02C89A59AA5ABA5BCA58A1966
:104E80009B09AC09BD09B7FF04C088A1886188A34C
:104E9000E3C08DA19EA1AFA1B8A5A816B906CA0608
:104EA000DB0609F036C02481358146815781022E08
:104EB000252F502D032E342F402DEDA4FEA40FA539
:104EC00018A9D801C701821B930BA40BB50BB7FD22
:104ED00011C02E153F0540075107D9F489A99AA999
:104EE000ABA9BCA986017501E81AF90A0A0B1B0BCC
:104EF00017FD0FC086859785082E892F902D9EABB4
:104F00008DAB2DA73EA74FA758ABA9AABAAACBAA8B
:104F1000DCAA2DA13EA14FA158A5D601C501821B37
:104F2000930BA40BB50BB7FD97C0A216B306C4062E
:104F3000D506F9F488AD99AD892B09F48DC0672B9E
:104F400009F08AC0858590E083709070892B09F004
:104F500083C08FA98F5F8FAB833008F47DC01FAAF9
:104F6000CE010E94DA26892B09F476C02FEF3FEF9D
:104F700075C01FAAADA2BEA2CFA2D8A6868597856E
:104F8000082E892F902D9EAB8DABCB5ADF4F888199
:104F90009981AA81BB81C555D0400097A105B10573
:104FA00049F08A199B09AC09BD09B7FF03C0CE01BE
:104FB0000E94892ECB5ADF4F188219821A821B82D7
:104FC000C555D04035C0DB011B96ED91FC911C9777
:104FD0002481358146815781022E252F502D032EA5
:104FE000342F402D51968D919C915297AA2797FD71
:104FF000A095BA2F280F391F4A1F5B1F858590E0A7
:1050000083709070892B21F02F5F3F4F4F4F5F4F80
:10501000D601C501821B930BA40BB50BB7FD0FC0C6
:10502000FB018081918199AF88AFCB010E94C3536E
:1050300068AD79AD6115710509F0C5CF1BC00E943F
:10504000F13AC15ADF4F616079836883CF55D04010
:10505000C55ADF4F1982188220E030E0C901DF9184
:10506000CF911F910F91FF90EF90DF90CF90BF9065
:10507000AF900895C15ADF4F19821882E7CF2F925F
:105080003F924F925F926F927F928F929F92AF92D8
:10509000BF92CF92DF92EF92FF920F931F93DF9315
:1050A000CF93CDB7DEB72C970FB6F894DEBF0FBE07
:1050B000CDBF9C878B876B01DB011B968D909C90ED
:1050C0001C97F401B584DC0153968C91853009F46A
:1050D000A5C3863098F4823009F4FDC1833038F4DA
:1050E000882309F40CC4813009F00DC4E1C1833078
:1050F00009F456C2843009F006C410C0883009F49F
:10510000D2C3893038F4863009F4E3C2873009F01D
:10511000FAC39DC3893009F0F6C339C3EB85FC851A
:1051200005A8F6A9E02DFA83E983AB85BC859596A1
:105130002D903D904D905C9098972F8238864986AF
:105140005A86B2FE0AC0CB010E94C3538B859C8550
:1051500066E370E00E9458248BC1B1FE1AC0F401CE
:1051600084819581A681B781082E8B2FB02D092EC1
:105170009A2FA02DEB85FC8524AD35AD46AD57ADFE
:1051800082179307A407B50731F0CB010E94A42131
:105190006FC1B4FC04C0C6010E94C35369C1DB01E6
:1051A00051964D915C9152978B859C85B4010E94DC
:1051B0002427EB85FC85E05CFF4FE080F1800281D5
:1051C0001381E054F040FC87EB87D40114962D91B5
:1051D0003D914D915C911797DA01C901082E8B2FF3
:1051E000B02D092E9A2FA02D17012801281A390A4F
:1051F0004A0A5B0A57FE85C0D60151964D915C91D3
:1052000052974115510509F46BC080910C0C909197
:105210000D0C889615962D913C911697820F931F31
:10522000840F951F90930D0C80930C0C81599C401A
:10523000B0F0C6010E94C35380910C0C90910D0CEC
:105240008897F60121893289821B930B258136814B
:10525000821B930B90930D0C80930C0C44C0EB8538
:10526000FC85EF5AFF4F608171815F0134C0D4012A
:105270001496ED90FD900D911C9117970E2CE12E38
:10528000102D0F2CF02E002DDB011B96ED91FC91C3
:105290001C972481358146815781022E252F502D60
:1052A000032E342F402DD801C701821B930BA40B72
:1052B000B50BB7FF07C0F501D182C082D6016D934F
:1052C0007C9311C0E216F3060407150749F05B0151
:1052D000DB016D917C916115710509F0C8CF17C391
:1052E000C6010E94C353EB85FC8580A1886180A321
:1052F0008B859C8560E070E040E050E00E943622A3
:10530000B7C0022E252F502D032E342F402D2E15E1
:105310003F054007510719F1AB85BC8590968C91EC
:105320009097886190968C939097FD01E159FF4F7B
:1053300080819181A281B3810196A11DB11D8083DD
:105340009183A283B383C6010E94C3538B859C853E
:1053500060E070E040E050E00E94362273C0F60149
:1053600081899289892B09F46AC08B859C85B60155
:105370000E94192571E5872E912C2B843C84820C88
:10538000931C60E4662E712C620C731C4BC0C384AA
:10539000D484D60114964D915D916D917C911797AF
:1053A0001A012B01022C252C502C032C342C402CC0
:1053B000D301ED90FD900D911C91D801C701821988
:1053C0009309A409B509B7FD33C080819181D40147
:1053D0008D939C9380910C0C90910D0C8897218952
:1053E0003289821B930B25813681821B930B90930C
:1053F0000D0C80930C0C042E472F702D052E562F6C
:10540000602D4E155F056007710749F48B859C85FB
:10541000BF010E941925F6018585B82A03C0CF0176
:105420000E94C353D401ED91FC91309709F0AFCFA6
:105430008B859C85815B9F4F0E946A3D03C0C6019E
:105440000E94C353B0FE14C0EB85FC85E05CFF4FA7
:1054500080819181A281B3810196A11DB11D8083BC
:105460009183A283B3838B859C8565E00E94AF25E1
:10547000EB85FC8583898430A9F485A996A92980C8
:105480003A802816390670F085A196A1A7A1B0A58B
:105490004F80588469847A8484159505A605B705DC
:1054A00009F43CC28B859C85CA960E945D3D36C23C
:1054B00056E1552EB52042E0642EB61409F01FC205
:1054C000DB0117966D917C9118978B859C85A401C3
:1054D0000E94642661C06B2D70E030E1A32EB12CD8
:1054E000A622B72264FF2AC0F40180859185A28597
:1054F000B385082E8B2FB02D092E9A2FA02DEB856A
:10550000FC85E1A0F2A003A114A18E199F09A00BB4
:10551000B10B0196A11DB11D21A532A543A554A52E
:105520002F5F3F4F4F4F5F4F2E193F09400B510BDD
:10553000281739074A075B0708F4E1C162FF0AC070
:10554000AB2809F4E0C18B859C856DE370E00E9477
:105550005824D9C161FFD7C1D60117966D917C91AE
:1055600018978B859C85A4010E946426AB28A1F026
:10557000F601418952898B859C85B4010E942427BC
:105580008B859C8564E00E94AF258B859C858B591B
:105590009F4F0E946A3DB7C18B859C8563E080C1A7
:1055A000B2FE2AC02B853C852D593F4FD9018D91E4
:1055B0009C911197A356B040BC87AB87892B29F0EB
:1055C000CD0161E00E94AF2506C08B859C856DE30F
:1055D00070E00E945824C6010E94C353EB85FC85ED
:1055E000E15AFF4F11821082EF55F040FC87EB87A4
:1055F000CF010E94471792C1B1FC81C1B4FE83C1A3
:10560000F40180859185A285B385082E8B2FB02D5E
:10561000092E9A2FA02DEB85FC85E5A0F6A007A109
:1056200010A58E199F09A00BB10B0196A11DB11DEC
:1056300021A532A543A554A52F5F3F4F4F4F5F4F84
:105640002E193F09400B510B281739074A075B07F2
:1056500008F455C1DB0151964D915C9152978B85B1
:105660009C85B4010E942427F60181899289892BA7
:1056700031F08B859C85B6010E94192503C0C601B7
:105680000E94C353B0FE13C0EB85FC85E05CFF4F66
:1056900080819181A281B3810196A11DB11D80837A
:1056A0009183A283B3838B859C8565E0B4C08B8591
:1056B0009C8564E00E94AF258B859C858D599F4F0A
:1056C0000E946A3D8B859C858B599F4F0E946A3D45
:1056D00025C11B2DB2FCE9C0B1FC11C1B4FE13C140
:1056E000DB0151964D915C9152978B859C85B4015D
:1056F0000E942427EB85FC8521A532A543A554A54E
:1057000085A196A1A7A1B0A5281739074A075B076D
:1057100021F4CF0169E00E94AF25D60151968D9109
:105720009C915297892B61F08B859C85B6010E94D4
:1057300019258B859C85815B9F4F0E946A3D03C024
:10574000C6010E94C35310FFE9C0EB85FC85E05CF5
:10575000FF4F80819181A281B3810196A11DB11D6E
:1057600080839183A283B383EB85FC85E35AFF4F4B
:1057700011821082ED55F040FC87EB8783898930D8
:1057800011F4CF0147C08B859C8567E044C01B2D79
:10579000B2FC8BC0B1FCB3C0B4FEB5C0DB01519606
:1057A0004D915C9152978B859C85B4010E94242772
:1057B000F60181899289892B61F08B859C85B601E0
:1057C0000E9419258B859C85815B9F4F0E946A3DB5
:1057D00003C0C6010E94C35310FFA0C0EB85FC8527
:1057E000E05CFF4F80819181A281B3810196A11D70
:1057F000B11D80839183A283B3832B853C85235A7B
:105800003F4FD90111961C921E92AD55B040BC87F6
:10581000AB87CD016AE00E94AF2580C0B2FE0AC00E
:10582000CB010E94C3538B859C8566E370E00E9488
:10583000582474C0B1FC63C0B4FE65C0FB0141894B
:1058400052898B859C85B4010E9424275CC0B2FCE0
:105850002CC0B1FC54C0B4FE56C0DB0151964D9132
:105860005C9152978B859C85B4010E942427EB851F
:10587000FC8521A532A543A554A585A196A1A7A184
:10588000B0A5281739074A075B07E9F5E35AFF4F28
:1058900011821082ED55F040FC87EB87CF016AE062
:1058A0000E94AF2530C0B2FE06C0C6010E94C3539D
:1058B0008B859C8521C0B1FC22C0B4FE24C0DB01D5
:1058C00051964D915C9152978B859C85B4010E94B5
:1058D0002427C6010E94C353EB85FC8521A532A570
:1058E00043A554A585A196A1A7A1B0A5281739075E
:1058F0004A075B0799F4CF010E94A91B0FC0C6019C
:105900000E94A4210BC0C6010E94C35307C0D50149
:10591000CD92DC92F60111821082E5CC2C960FB666
:10592000F894DEBF0FBECDBFCF91DF911F910F91D5
:10593000FF90EF90DF90CF90BF90AF909F908F90AF
:105940007F906F905F904F903F902F9008950F93AE
:105950001F93CF93DF93EC018B89882349F0CF59B4
:10596000DF4F88E390E09983888328E330E063C0C9
:10597000CE0161E00E94AF25088D198D44EF5BE0F8
:1059800068E020E030E0722FDA01ED91FC91309771
:10599000A9F00384F485E02D82819381801791071B
:1059A00069F4683061F0D901AC5FB34FE62FF0E0E5
:1059B000EC5FF34F9C918081891708F0762F2F5F61
:1059C0003F4F4E5F5F4F2830310511F0672FDBCF1F
:1059D0007830B1F0E72FF0E0EE0FFF1FEC50F44FFE
:1059E00000811181118210820115110549F0CE014B
:1059F000B8010E941724CE01B8010E943F280FC0B1
:105A0000C959DF4F488159816A817B81C756D0408F
:105A1000CE018D599F4F0E94BF3D892B19F420E084
:105A200030E009C01B8ACF59DF4F8CE390E09983A7
:105A300088832CE330E0C901DF91CF911F910F9152
:105A4000089580E20E946839CC245524539401C003
:105A5000CC24C39483E08C1558F08AE89CE048EC91
:105A600050E060E070E00E94BF3D892B09F483C0E4
:105A7000C4EFDBE0A4E0BCE020E0E8E088819981AD
:105A8000892B39F08C91853010F0E22F02C08F5FA6
:105A90008C932F5F22961196283081F7E83069F0B9
:105AA000F0E0EE0FFF1FEC50F44F808191811182E6
:105AB0001082009711F00E94A421C091C40BD091D4
:105AC000C50B55C088A184FF09C0886088A3CE019A
:105AD00060E070E040E050E00E94362288AD99AD71
